{
  "_format": "hh-sol-artifact-1",
  "contractName": "Decentratwitter",
  "sourceName": "contracts/Decentratwitter.sol",
  "abi": [
    {
      "inputs": [],
      "stateMutability": "nonpayable",
      "type": "constructor"
    },
    {
      "anonymous": false,
      "inputs": [
        {
          "indexed": true,
          "internalType": "address",
          "name": "owner",
          "type": "address"
        },
        {
          "indexed": true,
          "internalType": "address",
          "name": "approved",
          "type": "address"
        },
        {
          "indexed": true,
          "internalType": "uint256",
          "name": "tokenId",
          "type": "uint256"
        }
      ],
      "name": "Approval",
      "type": "event"
    },
    {
      "anonymous": false,
      "inputs": [
        {
          "indexed": true,
          "internalType": "address",
          "name": "owner",
          "type": "address"
        },
        {
          "indexed": true,
          "internalType": "address",
          "name": "operator",
          "type": "address"
        },
        {
          "indexed": false,
          "internalType": "bool",
          "name": "approved",
          "type": "bool"
        }
      ],
      "name": "ApprovalForAll",
      "type": "event"
    },
    {
      "anonymous": false,
      "inputs": [
        {
          "indexed": false,
          "internalType": "uint256",
          "name": "id",
          "type": "uint256"
        },
        {
          "indexed": false,
          "internalType": "string",
          "name": "hash",
          "type": "string"
        },
        {
          "indexed": false,
          "internalType": "uint256",
          "name": "tipAmount",
          "type": "uint256"
        },
        {
          "indexed": false,
          "internalType": "address payable",
          "name": "author",
          "type": "address"
        }
      ],
      "name": "PostCreated",
      "type": "event"
    },
    {
      "anonymous": false,
      "inputs": [
        {
          "indexed": false,
          "internalType": "uint256",
          "name": "id",
          "type": "uint256"
        },
        {
          "indexed": false,
          "internalType": "string",
          "name": "hash",
          "type": "string"
        },
        {
          "indexed": false,
          "internalType": "uint256",
          "name": "tipAmount",
          "type": "uint256"
        },
        {
          "indexed": false,
          "internalType": "address payable",
          "name": "author",
          "type": "address"
        }
      ],
      "name": "PostTipped",
      "type": "event"
    },
    {
      "anonymous": false,
      "inputs": [
        {
          "indexed": true,
          "internalType": "address",
          "name": "from",
          "type": "address"
        },
        {
          "indexed": true,
          "internalType": "address",
          "name": "to",
          "type": "address"
        },
        {
          "indexed": true,
          "internalType": "uint256",
          "name": "tokenId",
          "type": "uint256"
        }
      ],
      "name": "Transfer",
      "type": "event"
    },
    {
      "inputs": [
        {
          "internalType": "address",
          "name": "to",
          "type": "address"
        },
        {
          "internalType": "uint256",
          "name": "tokenId",
          "type": "uint256"
        }
      ],
      "name": "approve",
      "outputs": [],
      "stateMutability": "nonpayable",
      "type": "function"
    },
    {
      "inputs": [
        {
          "internalType": "address",
          "name": "owner",
          "type": "address"
        }
      ],
      "name": "balanceOf",
      "outputs": [
        {
          "internalType": "uint256",
          "name": "",
          "type": "uint256"
        }
      ],
      "stateMutability": "view",
      "type": "function"
    },
    {
      "inputs": [],
      "name": "getAllPosts",
      "outputs": [
        {
          "components": [
            {
              "internalType": "uint256",
              "name": "id",
              "type": "uint256"
            },
            {
              "internalType": "string",
              "name": "hash",
              "type": "string"
            },
            {
              "internalType": "uint256",
              "name": "tipAmount",
              "type": "uint256"
            },
            {
              "internalType": "address payable",
              "name": "author",
              "type": "address"
            }
          ],
          "internalType": "struct Decentratwitter.Post[]",
          "name": "_posts",
          "type": "tuple[]"
        }
      ],
      "stateMutability": "view",
      "type": "function"
    },
    {
      "inputs": [
        {
          "internalType": "uint256",
          "name": "tokenId",
          "type": "uint256"
        }
      ],
      "name": "getApproved",
      "outputs": [
        {
          "internalType": "address",
          "name": "",
          "type": "address"
        }
      ],
      "stateMutability": "view",
      "type": "function"
    },
    {
      "inputs": [],
      "name": "getMyNFTs",
      "outputs": [
        {
          "internalType": "uint256[]",
          "name": "_ids",
          "type": "uint256[]"
        }
      ],
      "stateMutability": "view",
      "type": "function"
    },
    {
      "inputs": [
        {
          "internalType": "address",
          "name": "owner",
          "type": "address"
        },
        {
          "internalType": "address",
          "name": "operator",
          "type": "address"
        }
      ],
      "name": "isApprovedForAll",
      "outputs": [
        {
          "internalType": "bool",
          "name": "",
          "type": "bool"
        }
      ],
      "stateMutability": "view",
      "type": "function"
    },
    {
      "inputs": [
        {
          "internalType": "string",
          "name": "_tokenURI",
          "type": "string"
        }
      ],
      "name": "mint",
      "outputs": [
        {
          "internalType": "uint256",
          "name": "",
          "type": "uint256"
        }
      ],
      "stateMutability": "nonpayable",
      "type": "function"
    },
    {
      "inputs": [],
      "name": "name",
      "outputs": [
        {
          "internalType": "string",
          "name": "",
          "type": "string"
        }
      ],
      "stateMutability": "view",
      "type": "function"
    },
    {
      "inputs": [
        {
          "internalType": "uint256",
          "name": "tokenId",
          "type": "uint256"
        }
      ],
      "name": "ownerOf",
      "outputs": [
        {
          "internalType": "address",
          "name": "",
          "type": "address"
        }
      ],
      "stateMutability": "view",
      "type": "function"
    },
    {
      "inputs": [],
      "name": "postCount",
      "outputs": [
        {
          "internalType": "uint256",
          "name": "",
          "type": "uint256"
        }
      ],
      "stateMutability": "view",
      "type": "function"
    },
    {
      "inputs": [
        {
          "internalType": "uint256",
          "name": "",
          "type": "uint256"
        }
      ],
      "name": "posts",
      "outputs": [
        {
          "internalType": "uint256",
          "name": "id",
          "type": "uint256"
        },
        {
          "internalType": "string",
          "name": "hash",
          "type": "string"
        },
        {
          "internalType": "uint256",
          "name": "tipAmount",
          "type": "uint256"
        },
        {
          "internalType": "address payable",
          "name": "author",
          "type": "address"
        }
      ],
      "stateMutability": "view",
      "type": "function"
    },
    {
      "inputs": [
        {
          "internalType": "address",
          "name": "",
          "type": "address"
        }
      ],
      "name": "profiles",
      "outputs": [
        {
          "internalType": "uint256",
          "name": "",
          "type": "uint256"
        }
      ],
      "stateMutability": "view",
      "type": "function"
    },
    {
      "inputs": [
        {
          "internalType": "address",
          "name": "from",
          "type": "address"
        },
        {
          "internalType": "address",
          "name": "to",
          "type": "address"
        },
        {
          "internalType": "uint256",
          "name": "tokenId",
          "type": "uint256"
        }
      ],
      "name": "safeTransferFrom",
      "outputs": [],
      "stateMutability": "nonpayable",
      "type": "function"
    },
    {
      "inputs": [
        {
          "internalType": "address",
          "name": "from",
          "type": "address"
        },
        {
          "internalType": "address",
          "name": "to",
          "type": "address"
        },
        {
          "internalType": "uint256",
          "name": "tokenId",
          "type": "uint256"
        },
        {
          "internalType": "bytes",
          "name": "_data",
          "type": "bytes"
        }
      ],
      "name": "safeTransferFrom",
      "outputs": [],
      "stateMutability": "nonpayable",
      "type": "function"
    },
    {
      "inputs": [
        {
          "internalType": "address",
          "name": "operator",
          "type": "address"
        },
        {
          "internalType": "bool",
          "name": "approved",
          "type": "bool"
        }
      ],
      "name": "setApprovalForAll",
      "outputs": [],
      "stateMutability": "nonpayable",
      "type": "function"
    },
    {
      "inputs": [
        {
          "internalType": "uint256",
          "name": "_id",
          "type": "uint256"
        }
      ],
      "name": "setProfile",
      "outputs": [],
      "stateMutability": "nonpayable",
      "type": "function"
    },
    {
      "inputs": [
        {
          "internalType": "bytes4",
          "name": "interfaceId",
          "type": "bytes4"
        }
      ],
      "name": "supportsInterface",
      "outputs": [
        {
          "internalType": "bool",
          "name": "",
          "type": "bool"
        }
      ],
      "stateMutability": "view",
      "type": "function"
    },
    {
      "inputs": [],
      "name": "symbol",
      "outputs": [
        {
          "internalType": "string",
          "name": "",
          "type": "string"
        }
      ],
      "stateMutability": "view",
      "type": "function"
    },
    {
      "inputs": [
        {
          "internalType": "uint256",
          "name": "_id",
          "type": "uint256"
        }
      ],
      "name": "tipPostOwner",
      "outputs": [],
      "stateMutability": "payable",
      "type": "function"
    },
    {
      "inputs": [],
      "name": "tokenCount",
      "outputs": [
        {
          "internalType": "uint256",
          "name": "",
          "type": "uint256"
        }
      ],
      "stateMutability": "view",
      "type": "function"
    },
    {
      "inputs": [
        {
          "internalType": "uint256",
          "name": "tokenId",
          "type": "uint256"
        }
      ],
      "name": "tokenURI",
      "outputs": [
        {
          "internalType": "string",
          "name": "",
          "type": "string"
        }
      ],
      "stateMutability": "view",
      "type": "function"
    },
    {
      "inputs": [
        {
          "internalType": "address",
          "name": "from",
          "type": "address"
        },
        {
          "internalType": "address",
          "name": "to",
          "type": "address"
        },
        {
          "internalType": "uint256",
          "name": "tokenId",
          "type": "uint256"
        }
      ],
      "name": "transferFrom",
      "outputs": [],
      "stateMutability": "nonpayable",
      "type": "function"
    },
    {
      "inputs": [
        {
          "internalType": "string",
          "name": "_postHash",
          "type": "string"
        }
      ],
      "name": "uploadPost",
      "outputs": [],
      "stateMutability": "nonpayable",
      "type": "function"
    }
  ],
  "bytecode": "0x60806040523480156200001157600080fd5b506040518060400160405280600f81526020017f446563656e7472617477697474657200000000000000000000000000000000008152506040518060400160405280600481526020017f4441505000000000000000000000000000000000000000000000000000000000815250816000908051906020019062000096929190620000b8565b508060019080519060200190620000af929190620000b8565b505050620001cd565b828054620000c69062000168565b90600052602060002090601f016020900481019282620000ea576000855562000136565b82601f106200010557805160ff191683800117855562000136565b8280016001018555821562000136579182015b828111156200013557825182559160200191906001019062000118565b5b50905062000145919062000149565b5090565b5b80821115620001645760008160009055506001016200014a565b5090565b600060028204905060018216806200018157607f821691505b602082108114156200019857620001976200019e565b5b50919050565b7f4e487b7100000000000000000000000000000000000000000000000000000000600052602260045260246000fd5b613d2f80620001dd6000396000f3fe6080604052600436106101405760003560e01c806370a08231116100b6578063bbe156271161006f578063bbe1562714610471578063bdd05adb146104ae578063c87b56dd146104d7578063d6313c0614610514578063d85d3d2714610530578063e985e9c51461056d57610140565b806370a082311461036357806385d3cb37146103a057806395d89b41146103c95780639f181b5e146103f4578063a22cb4651461041f578063b88d4fde1461044857610140565b806317906c2e1161010857806317906c2e1461025357806323b872dd1461027e57806330561100146102a757806342842e0e146102d2578063629cb2e4146102fb5780636352211e1461032657610140565b806301ffc9a71461014557806306fdde0314610182578063081812fc146101ad578063095ea7b3146101ea5780630b1e7f8314610213575b600080fd5b34801561015157600080fd5b5061016c600480360381019061016791906127d9565b6105aa565b6040516101799190612eea565b60405180910390f35b34801561018e57600080fd5b5061019761068c565b6040516101a49190612f05565b60405180910390f35b3480156101b957600080fd5b506101d460048036038101906101cf919061286c565b61071e565b6040516101e19190612e3f565b60405180910390f35b3480156101f657600080fd5b50610211600480360381019061020c919061279d565b6107a3565b005b34801561021f57600080fd5b5061023a6004803603810190610235919061286c565b6108bb565b60405161024a949392919061322e565b60405180910390f35b34801561025f57600080fd5b50610268610993565b60405161027591906131c7565b60405180910390f35b34801561028a57600080fd5b506102a560048036038101906102a09190612697565b610999565b005b3480156102b357600080fd5b506102bc6109f9565b6040516102c99190612ea6565b60405180910390f35b3480156102de57600080fd5b506102f960048036038101906102f49190612697565b610c06565b005b34801561030757600080fd5b50610310610c26565b60405161031d9190612ec8565b60405180910390f35b34801561033257600080fd5b5061034d6004803603810190610348919061286c565b610c2b565b60405161035a9190612e3f565b60405180910390f35b34801561036f57600080fd5b5061038a60048036038101906103859190612632565b610cdd565b60405161039791906131c7565b60405180910390f35b3480156103ac57600080fd5b506103c760048036038101906103c2919061286c565b610d95565b005b3480156103d557600080fd5b506103de610e52565b6040516103eb9190612f05565b60405180910390f35b34801561040057600080fd5b50610409610ee4565b60405161041691906131c7565b60405180910390f35b34801561042b57600080fd5b5061044660048036038101906104419190612761565b610eea565b005b34801561045457600080fd5b5061046f600480360381019061046a91906126e6565b610f00565b005b34801561047d57600080fd5b5061049860048036038101906104939190612632565b610f62565b6040516104a591906131c7565b60405180910390f35b3480156104ba57600080fd5b506104d560048036038101906104d0919061282b565b610f7a565b005b3480156104e357600080fd5b506104fe60048036038101906104f9919061286c565b61112e565b60405161050b9190612f05565b60405180910390f35b61052e6004803603810190610529919061286c565b611280565b005b34801561053c57600080fd5b506105576004803603810190610552919061282b565b6115a2565b60405161056491906131c7565b60405180910390f35b34801561057957600080fd5b50610594600480360381019061058f919061265b565b6115e9565b6040516105a19190612eea565b60405180910390f35b60007f80ac58cd000000000000000000000000000000000000000000000000000000007bffffffffffffffffffffffffffffffffffffffffffffffffffffffff1916827bffffffffffffffffffffffffffffffffffffffffffffffffffffffff1916148061067557507f5b5e139f000000000000000000000000000000000000000000000000000000007bffffffffffffffffffffffffffffffffffffffffffffffffffffffff1916827bffffffffffffffffffffffffffffffffffffffffffffffffffffffff1916145b8061068557506106848261167d565b5b9050919050565b60606000805461069b9061355c565b80601f01602080910402602001604051908101604052809291908181526020018280546106c79061355c565b80156107145780601f106106e957610100808354040283529160200191610714565b820191906000526020600020905b8154815290600101906020018083116106f757829003601f168201915b5050505050905090565b6000610729826116e7565b610768576040517f08c379a000000000000000000000000000000000000000000000000000000000815260040161075f906130c7565b60405180910390fd5b6004600083815260200190815260200160002060009054906101000a900473ffffffffffffffffffffffffffffffffffffffff169050919050565b60006107ae82610c2b565b90508073ffffffffffffffffffffffffffffffffffffffff168373ffffffffffffffffffffffffffffffffffffffff16141561081f576040517f08c379a000000000000000000000000000000000000000000000000000000000815260040161081690613127565b60405180910390fd5b8073ffffffffffffffffffffffffffffffffffffffff1661083e611753565b73ffffffffffffffffffffffffffffffffffffffff16148061086d575061086c81610867611753565b6115e9565b5b6108ac576040517f08c379a00000000000000000000000000000000000000000000000000000000081526004016108a390612fe7565b60405180910390fd5b6108b6838361175b565b505050565b60096020528060005260406000206000915090508060000154908060010180546108e49061355c565b80601f01602080910402602001604051908101604052809291908181526020018280546109109061355c565b801561095d5780601f106109325761010080835404028352916020019161095d565b820191906000526020600020905b81548152906001019060200180831161094057829003601f168201915b5050505050908060020154908060030160009054906101000a900473ffffffffffffffffffffffffffffffffffffffff16905084565b60085481565b6109aa6109a4611753565b82611814565b6109e9576040517f08c379a00000000000000000000000000000000000000000000000000000000081526004016109e0906131a7565b60405180910390fd5b6109f48383836118f2565b505050565b606060085467ffffffffffffffff811115610a3d577f4e487b7100000000000000000000000000000000000000000000000000000000600052604160045260246000fd5b604051908082528060200260200182016040528015610a7657816020015b610a63612418565b815260200190600190039081610a5b5790505b50905060005b8151811015610c025760096000600183610a9691906133c7565b815260200190815260200160002060405180608001604052908160008201548152602001600182018054610ac99061355c565b80601f0160208091040260200160405190810160405280929190818152602001828054610af59061355c565b8015610b425780601f10610b1757610100808354040283529160200191610b42565b820191906000526020600020905b815481529060010190602001808311610b2557829003601f168201915b50505050508152602001600282015481526020016003820160009054906101000a900473ffffffffffffffffffffffffffffffffffffffff1673ffffffffffffffffffffffffffffffffffffffff1673ffffffffffffffffffffffffffffffffffffffff1681525050828281518110610be4577f4e487b7100000000000000000000000000000000000000000000000000000000600052603260045260246000fd5b60200260200101819052508080610bfa906135bf565b915050610a7c565b5090565b610c2183838360405180602001604052806000815250610f00565b505050565b606090565b6000806002600084815260200190815260200160002060009054906101000a900473ffffffffffffffffffffffffffffffffffffffff169050600073ffffffffffffffffffffffffffffffffffffffff168173ffffffffffffffffffffffffffffffffffffffff161415610cd4576040517f08c379a0000000000000000000000000000000000000000000000000000000008152600401610ccb90613027565b60405180910390fd5b80915050919050565b60008073ffffffffffffffffffffffffffffffffffffffff168273ffffffffffffffffffffffffffffffffffffffff161415610d4e576040517f08c379a0000000000000000000000000000000000000000000000000000000008152600401610d4590613007565b60405180910390fd5b600360008373ffffffffffffffffffffffffffffffffffffffff1673ffffffffffffffffffffffffffffffffffffffff168152602001908152602001600020549050919050565b3373ffffffffffffffffffffffffffffffffffffffff16610db582610c2b565b73ffffffffffffffffffffffffffffffffffffffff1614610e0b576040517f08c379a0000000000000000000000000000000000000000000000000000000008152600401610e0290613147565b60405180910390fd5b80600a60003373ffffffffffffffffffffffffffffffffffffffff1673ffffffffffffffffffffffffffffffffffffffff1681526020019081526020016000208190555050565b606060018054610e619061355c565b80601f0160208091040260200160405190810160405280929190818152602001828054610e8d9061355c565b8015610eda5780601f10610eaf57610100808354040283529160200191610eda565b820191906000526020600020905b815481529060010190602001808311610ebd57829003601f168201915b5050505050905090565b60075481565b610efc610ef5611753565b8383611b59565b5050565b610f11610f0b611753565b83611814565b610f50576040517f08c379a0000000000000000000000000000000000000000000000000000000008152600401610f47906131a7565b60405180910390fd5b610f5c84848484611cc6565b50505050565b600a6020528060005260406000206000915090505481565b6000610f8533610cdd565b11610fc5576040517f08c379a0000000000000000000000000000000000000000000000000000000008152600401610fbc90613187565b60405180910390fd5b6000815111611009576040517f08c379a0000000000000000000000000000000000000000000000000000000008152600401611000906130e7565b60405180910390fd5b6008600081548092919061101c906135bf565b919050555060405180608001604052806008548152602001828152602001600081526020013373ffffffffffffffffffffffffffffffffffffffff16815250600960006008548152602001908152602001600020600082015181600001556020820151816001019080519060200190611096929190612456565b506040820151816002015560608201518160030160006101000a81548173ffffffffffffffffffffffffffffffffffffffff021916908373ffffffffffffffffffffffffffffffffffffffff1602179055509050507fc66336337a24e513f909b3b25119854dba8385d51307dbc7d31d1b2805e19c7e6008548260003360405161112394939291906131e2565b60405180910390a150565b6060611139826116e7565b611178576040517f08c379a000000000000000000000000000000000000000000000000000000000815260040161116f906130a7565b60405180910390fd5b60006006600084815260200190815260200160002080546111989061355c565b80601f01602080910402602001604051908101604052809291908181526020018280546111c49061355c565b80156112115780601f106111e657610100808354040283529160200191611211565b820191906000526020600020905b8154815290600101906020018083116111f457829003601f168201915b505050505090506000611222611d22565b905060008151141561123857819250505061127b565b60008251111561126d578082604051602001611255929190612e1b565b6040516020818303038152906040529250505061127b565b61127684611d39565b925050505b919050565b60008111801561129257506008548111155b6112d1576040517f08c379a00000000000000000000000000000000000000000000000000000000081526004016112c890613067565b60405180910390fd5b6000600960008381526020019081526020016000206040518060800160405290816000820154815260200160018201805461130b9061355c565b80601f01602080910402602001604051908101604052809291908181526020018280546113379061355c565b80156113845780601f1061135957610100808354040283529160200191611384565b820191906000526020600020905b81548152906001019060200180831161136757829003601f168201915b50505050508152602001600282015481526020016003820160009054906101000a900473ffffffffffffffffffffffffffffffffffffffff1673ffffffffffffffffffffffffffffffffffffffff1673ffffffffffffffffffffffffffffffffffffffff168152505090503373ffffffffffffffffffffffffffffffffffffffff16816060015173ffffffffffffffffffffffffffffffffffffffff161415611462576040517f08c379a000000000000000000000000000000000000000000000000000000000815260040161145990613167565b60405180910390fd5b806060015173ffffffffffffffffffffffffffffffffffffffff166108fc349081150290604051600060405180830381858888f193505050501580156114ac573d6000803e3d6000fd5b5034816040018181516114bf91906133c7565b915081815250508060096000848152602001908152602001600020600082015181600001556020820151816001019080519060200190611500929190612456565b506040820151816002015560608201518160030160006101000a81548173ffffffffffffffffffffffffffffffffffffffff021916908373ffffffffffffffffffffffffffffffffffffffff1602179055509050507f20988fe475351e75813672abada1dddb7ac67cbbeb81e61e1160b8329d8cdf1c82826020015183604001518460600151604051611596949392919061322e565b60405180910390a15050565b6000600760008154809291906115b7906135bf565b91905055506115c833600754611de0565b6115d460075483611dfe565b6115df600754610d95565b6007549050919050565b6000600560008473ffffffffffffffffffffffffffffffffffffffff1673ffffffffffffffffffffffffffffffffffffffff16815260200190815260200160002060008373ffffffffffffffffffffffffffffffffffffffff1673ffffffffffffffffffffffffffffffffffffffff16815260200190815260200160002060009054906101000a900460ff16905092915050565b60007f01ffc9a7000000000000000000000000000000000000000000000000000000007bffffffffffffffffffffffffffffffffffffffffffffffffffffffff1916827bffffffffffffffffffffffffffffffffffffffffffffffffffffffff1916149050919050565b60008073ffffffffffffffffffffffffffffffffffffffff166002600084815260200190815260200160002060009054906101000a900473ffffffffffffffffffffffffffffffffffffffff1673ffffffffffffffffffffffffffffffffffffffff1614159050919050565b600033905090565b816004600083815260200190815260200160002060006101000a81548173ffffffffffffffffffffffffffffffffffffffff021916908373ffffffffffffffffffffffffffffffffffffffff160217905550808273ffffffffffffffffffffffffffffffffffffffff166117ce83610c2b565b73ffffffffffffffffffffffffffffffffffffffff167f8c5be1e5ebec7d5bd14f71427d1e84f3dd0314c0f7b2291e5b200ac8c7c3b92560405160405180910390a45050565b600061181f826116e7565b61185e576040517f08c379a000000000000000000000000000000000000000000000000000000000815260040161185590612fc7565b60405180910390fd5b600061186983610c2b565b90508073ffffffffffffffffffffffffffffffffffffffff168473ffffffffffffffffffffffffffffffffffffffff1614806118d857508373ffffffffffffffffffffffffffffffffffffffff166118c08461071e565b73ffffffffffffffffffffffffffffffffffffffff16145b806118e957506118e881856115e9565b5b91505092915050565b8273ffffffffffffffffffffffffffffffffffffffff1661191282610c2b565b73ffffffffffffffffffffffffffffffffffffffff1614611968576040517f08c379a000000000000000000000000000000000000000000000000000000000815260040161195f90612f47565b60405180910390fd5b600073ffffffffffffffffffffffffffffffffffffffff168273ffffffffffffffffffffffffffffffffffffffff1614156119d8576040517f08c379a00000000000000000000000000000000000000000000000000000000081526004016119cf90612f87565b60405180910390fd5b6119e3838383611e72565b6119ee60008261175b565b6001600360008573ffffffffffffffffffffffffffffffffffffffff1673ffffffffffffffffffffffffffffffffffffffff1681526020019081526020016000206000828254611a3e919061344e565b925050819055506001600360008473ffffffffffffffffffffffffffffffffffffffff1673ffffffffffffffffffffffffffffffffffffffff1681526020019081526020016000206000828254611a9591906133c7565b92505081905550816002600083815260200190815260200160002060006101000a81548173ffffffffffffffffffffffffffffffffffffffff021916908373ffffffffffffffffffffffffffffffffffffffff160217905550808273ffffffffffffffffffffffffffffffffffffffff168473ffffffffffffffffffffffffffffffffffffffff167fddf252ad1be2c89b69c2b068fc378daa952ba7f163c4a11628f55a4df523b3ef60405160405180910390a4611b54838383611e77565b505050565b8173ffffffffffffffffffffffffffffffffffffffff168373ffffffffffffffffffffffffffffffffffffffff161415611bc8576040517f08c379a0000000000000000000000000000000000000000000000000000000008152600401611bbf90612fa7565b60405180910390fd5b80600560008573ffffffffffffffffffffffffffffffffffffffff1673ffffffffffffffffffffffffffffffffffffffff16815260200190815260200160002060008473ffffffffffffffffffffffffffffffffffffffff1673ffffffffffffffffffffffffffffffffffffffff16815260200190815260200160002060006101000a81548160ff0219169083151502179055508173ffffffffffffffffffffffffffffffffffffffff168373ffffffffffffffffffffffffffffffffffffffff167f17307eab39ab6107e8899845ad3d59bd9653f200f220920489ca2b5937696c3183604051611cb99190612eea565b60405180910390a3505050565b611cd18484846118f2565b611cdd84848484611e7c565b611d1c576040517f08c379a0000000000000000000000000000000000000000000000000000000008152600401611d1390612f27565b60405180910390fd5b50505050565b606060405180602001604052806000815250905090565b6060611d44826116e7565b611d83576040517f08c379a0000000000000000000000000000000000000000000000000000000008152600401611d7a90613107565b60405180910390fd5b6000611d8d611d22565b90506000815111611dad5760405180602001604052806000815250611dd8565b80611db784612013565b604051602001611dc8929190612e1b565b6040516020818303038152906040525b915050919050565b611dfa8282604051806020016040528060008152506121c0565b5050565b611e07826116e7565b611e46576040517f08c379a0000000000000000000000000000000000000000000000000000000008152600401611e3d90613047565b60405180910390fd5b80600660008481526020019081526020016000209080519060200190611e6d929190612456565b505050565b505050565b505050565b6000611e9d8473ffffffffffffffffffffffffffffffffffffffff1661221b565b15612006578373ffffffffffffffffffffffffffffffffffffffff1663150b7a02611ec6611753565b8786866040518563ffffffff1660e01b8152600401611ee89493929190612e5a565b602060405180830381600087803b158015611f0257600080fd5b505af1925050508015611f3357506040513d601f19601f82011682018060405250810190611f309190612802565b60015b611fb6573d8060008114611f63576040519150601f19603f3d011682016040523d82523d6000602084013e611f68565b606091505b50600081511415611fae576040517f08c379a0000000000000000000000000000000000000000000000000000000008152600401611fa590612f27565b60405180910390fd5b805181602001fd5b63150b7a0260e01b7bffffffffffffffffffffffffffffffffffffffffffffffffffffffff1916817bffffffffffffffffffffffffffffffffffffffffffffffffffffffff19161491505061200b565b600190505b949350505050565b6060600082141561205b576040518060400160405280600181526020017f300000000000000000000000000000000000000000000000000000000000000081525090506121bb565b600082905060005b6000821461208d578080612076906135bf565b915050600a82612086919061341d565b9150612063565b60008167ffffffffffffffff8111156120cf577f4e487b7100000000000000000000000000000000000000000000000000000000600052604160045260246000fd5b6040519080825280601f01601f1916602001820160405280156121015781602001600182028036833780820191505090505b5090505b600085146121b45760018261211a919061344e565b9150600a856121299190613608565b603061213591906133c7565b60f81b818381518110612171577f4e487b7100000000000000000000000000000000000000000000000000000000600052603260045260246000fd5b60200101907effffffffffffffffffffffffffffffffffffffffffffffffffffffffffffff1916908160001a905350600a856121ad919061341d565b9450612105565b8093505050505b919050565b6121ca838361223e565b6121d76000848484611e7c565b612216576040517f08c379a000000000000000000000000000000000000000000000000000000000815260040161220d90612f27565b60405180910390fd5b505050565b6000808273ffffffffffffffffffffffffffffffffffffffff163b119050919050565b600073ffffffffffffffffffffffffffffffffffffffff168273ffffffffffffffffffffffffffffffffffffffff1614156122ae576040517f08c379a00000000000000000000000000000000000000000000000000000000081526004016122a590613087565b60405180910390fd5b6122b7816116e7565b156122f7576040517f08c379a00000000000000000000000000000000000000000000000000000000081526004016122ee90612f67565b60405180910390fd5b61230360008383611e72565b6001600360008473ffffffffffffffffffffffffffffffffffffffff1673ffffffffffffffffffffffffffffffffffffffff168152602001908152602001600020600082825461235391906133c7565b92505081905550816002600083815260200190815260200160002060006101000a81548173ffffffffffffffffffffffffffffffffffffffff021916908373ffffffffffffffffffffffffffffffffffffffff160217905550808273ffffffffffffffffffffffffffffffffffffffff16600073ffffffffffffffffffffffffffffffffffffffff167fddf252ad1be2c89b69c2b068fc378daa952ba7f163c4a11628f55a4df523b3ef60405160405180910390a461241460008383611e77565b5050565b6040518060800160405280600081526020016060815260200160008152602001600073ffffffffffffffffffffffffffffffffffffffff1681525090565b8280546124629061355c565b90600052602060002090601f01602090048101928261248457600085556124cb565b82601f1061249d57805160ff19168380011785556124cb565b828001600101855582156124cb579182015b828111156124ca5782518255916020019190600101906124af565b5b5090506124d891906124dc565b5090565b5b808211156124f55760008160009055506001016124dd565b5090565b600061250c6125078461329f565b61327a565b90508281526020810184848401111561252457600080fd5b61252f84828561351a565b509392505050565b600061254a612545846132d0565b61327a565b90508281526020810184848401111561256257600080fd5b61256d84828561351a565b509392505050565b60008135905061258481613c9d565b92915050565b60008135905061259981613cb4565b92915050565b6000813590506125ae81613ccb565b92915050565b6000815190506125c381613ccb565b92915050565b600082601f8301126125da57600080fd5b81356125ea8482602086016124f9565b91505092915050565b600082601f83011261260457600080fd5b8135612614848260208601612537565b91505092915050565b60008135905061262c81613ce2565b92915050565b60006020828403121561264457600080fd5b600061265284828501612575565b91505092915050565b6000806040838503121561266e57600080fd5b600061267c85828601612575565b925050602061268d85828601612575565b9150509250929050565b6000806000606084860312156126ac57600080fd5b60006126ba86828701612575565b93505060206126cb86828701612575565b92505060406126dc8682870161261d565b9150509250925092565b600080600080608085870312156126fc57600080fd5b600061270a87828801612575565b945050602061271b87828801612575565b935050604061272c8782880161261d565b925050606085013567ffffffffffffffff81111561274957600080fd5b612755878288016125c9565b91505092959194509250565b6000806040838503121561277457600080fd5b600061278285828601612575565b92505060206127938582860161258a565b9150509250929050565b600080604083850312156127b057600080fd5b60006127be85828601612575565b92505060206127cf8582860161261d565b9150509250929050565b6000602082840312156127eb57600080fd5b60006127f98482850161259f565b91505092915050565b60006020828403121561281457600080fd5b6000612822848285016125b4565b91505092915050565b60006020828403121561283d57600080fd5b600082013567ffffffffffffffff81111561285757600080fd5b612863848285016125f3565b91505092915050565b60006020828403121561287e57600080fd5b600061288c8482850161261d565b91505092915050565b60006128a18383612d9a565b905092915050565b60006128b58383612dfd565b60208301905092915050565b6128ca81613494565b82525050565b6128d981613494565b82525050565b6128e881613482565b82525050565b60006128f982613321565b6129038185613367565b93508360208202850161291585613301565b8060005b8581101561295157848403895281516129328582612895565b945061293d8361334d565b925060208a01995050600181019050612919565b50829750879550505050505092915050565b600061296e8261332c565b6129788185613378565b935061298383613311565b8060005b838110156129b457815161299b88826128a9565b97506129a68361335a565b925050600181019050612987565b5085935050505092915050565b6129ca816134a6565b82525050565b60006129db82613337565b6129e58185613389565b93506129f5818560208601613529565b6129fe816136f5565b840191505092915050565b612a1281613508565b82525050565b6000612a2382613342565b612a2d818561339a565b9350612a3d818560208601613529565b612a46816136f5565b840191505092915050565b6000612a5c82613342565b612a6681856133ab565b9350612a76818560208601613529565b612a7f816136f5565b840191505092915050565b6000612a9582613342565b612a9f81856133bc565b9350612aaf818560208601613529565b80840191505092915050565b6000612ac86032836133ab565b9150612ad382613706565b604082019050919050565b6000612aeb6025836133ab565b9150612af682613755565b604082019050919050565b6000612b0e601c836133ab565b9150612b19826137a4565b602082019050919050565b6000612b316024836133ab565b9150612b3c826137cd565b604082019050919050565b6000612b546019836133ab565b9150612b5f8261381c565b602082019050919050565b6000612b77602c836133ab565b9150612b8282613845565b604082019050919050565b6000612b9a6038836133ab565b9150612ba582613894565b604082019050919050565b6000612bbd602a836133ab565b9150612bc8826138e3565b604082019050919050565b6000612be06029836133ab565b9150612beb82613932565b604082019050919050565b6000612c03602e836133ab565b9150612c0e82613981565b604082019050919050565b6000612c26600f836133ab565b9150612c31826139d0565b602082019050919050565b6000612c496020836133ab565b9150612c54826139f9565b602082019050919050565b6000612c6c6031836133ab565b9150612c7782613a22565b604082019050919050565b6000612c8f602c836133ab565b9150612c9a82613a71565b604082019050919050565b6000612cb26019836133ab565b9150612cbd82613ac0565b602082019050919050565b6000612cd5602f836133ab565b9150612ce082613ae9565b604082019050919050565b6000612cf86021836133ab565b9150612d0382613b38565b604082019050919050565b6000612d1b6033836133ab565b9150612d2682613b87565b604082019050919050565b6000612d3e6018836133ab565b9150612d4982613bd6565b602082019050919050565b6000612d616026836133ab565b9150612d6c82613bff565b604082019050919050565b6000612d846031836133ab565b9150612d8f82613c4e565b604082019050919050565b6000608083016000830151612db26000860182612dfd565b5060208301518482036020860152612dca8282612a18565b9150506040830151612ddf6040860182612dfd565b506060830151612df260608601826128c1565b508091505092915050565b612e06816134fe565b82525050565b612e15816134fe565b82525050565b6000612e278285612a8a565b9150612e338284612a8a565b91508190509392505050565b6000602082019050612e5460008301846128df565b92915050565b6000608082019050612e6f60008301876128df565b612e7c60208301866128df565b612e896040830185612e0c565b8181036060830152612e9b81846129d0565b905095945050505050565b60006020820190508181036000830152612ec081846128ee565b905092915050565b60006020820190508181036000830152612ee28184612963565b905092915050565b6000602082019050612eff60008301846129c1565b92915050565b60006020820190508181036000830152612f1f8184612a51565b905092915050565b60006020820190508181036000830152612f4081612abb565b9050919050565b60006020820190508181036000830152612f6081612ade565b9050919050565b60006020820190508181036000830152612f8081612b01565b9050919050565b60006020820190508181036000830152612fa081612b24565b9050919050565b60006020820190508181036000830152612fc081612b47565b9050919050565b60006020820190508181036000830152612fe081612b6a565b9050919050565b6000602082019050818103600083015261300081612b8d565b9050919050565b6000602082019050818103600083015261302081612bb0565b9050919050565b6000602082019050818103600083015261304081612bd3565b9050919050565b6000602082019050818103600083015261306081612bf6565b9050919050565b6000602082019050818103600083015261308081612c19565b9050919050565b600060208201905081810360008301526130a081612c3c565b9050919050565b600060208201905081810360008301526130c081612c5f565b9050919050565b600060208201905081810360008301526130e081612c82565b9050919050565b6000602082019050818103600083015261310081612ca5565b9050919050565b6000602082019050818103600083015261312081612cc8565b9050919050565b6000602082019050818103600083015261314081612ceb565b9050919050565b6000602082019050818103600083015261316081612d0e565b9050919050565b6000602082019050818103600083015261318081612d31565b9050919050565b600060208201905081810360008301526131a081612d54565b9050919050565b600060208201905081810360008301526131c081612d77565b9050919050565b60006020820190506131dc6000830184612e0c565b92915050565b60006080820190506131f76000830187612e0c565b81810360208301526132098186612a51565b90506132186040830185612a09565b61322560608301846128d0565b95945050505050565b60006080820190506132436000830187612e0c565b81810360208301526132558186612a51565b90506132646040830185612e0c565b61327160608301846128d0565b95945050505050565b6000613284613295565b9050613290828261358e565b919050565b6000604051905090565b600067ffffffffffffffff8211156132ba576132b96136c6565b5b6132c3826136f5565b9050602081019050919050565b600067ffffffffffffffff8211156132eb576132ea6136c6565b5b6132f4826136f5565b9050602081019050919050565b6000819050602082019050919050565b6000819050602082019050919050565b600081519050919050565b600081519050919050565b600081519050919050565b600081519050919050565b6000602082019050919050565b6000602082019050919050565b600082825260208201905092915050565b600082825260208201905092915050565b600082825260208201905092915050565b600082825260208201905092915050565b600082825260208201905092915050565b600081905092915050565b60006133d2826134fe565b91506133dd836134fe565b9250827fffffffffffffffffffffffffffffffffffffffffffffffffffffffffffffffff0382111561341257613411613639565b5b828201905092915050565b6000613428826134fe565b9150613433836134fe565b92508261344357613442613668565b5b828204905092915050565b6000613459826134fe565b9150613464836134fe565b92508282101561347757613476613639565b5b828203905092915050565b600061348d826134de565b9050919050565b600061349f826134de565b9050919050565b60008115159050919050565b60007fffffffff0000000000000000000000000000000000000000000000000000000082169050919050565b600073ffffffffffffffffffffffffffffffffffffffff82169050919050565b6000819050919050565b6000613513826134fe565b9050919050565b82818337600083830152505050565b60005b8381101561354757808201518184015260208101905061352c565b83811115613556576000848401525b50505050565b6000600282049050600182168061357457607f821691505b6020821081141561358857613587613697565b5b50919050565b613597826136f5565b810181811067ffffffffffffffff821117156135b6576135b56136c6565b5b80604052505050565b60006135ca826134fe565b91507fffffffffffffffffffffffffffffffffffffffffffffffffffffffffffffffff8214156135fd576135fc613639565b5b600182019050919050565b6000613613826134fe565b915061361e836134fe565b92508261362e5761362d613668565b5b828206905092915050565b7f4e487b7100000000000000000000000000000000000000000000000000000000600052601160045260246000fd5b7f4e487b7100000000000000000000000000000000000000000000000000000000600052601260045260246000fd5b7f4e487b7100000000000000000000000000000000000000000000000000000000600052602260045260246000fd5b7f4e487b7100000000000000000000000000000000000000000000000000000000600052604160045260246000fd5b6000601f19601f8301169050919050565b7f4552433732313a207472616e7366657220746f206e6f6e20455243373231526560008201527f63656976657220696d706c656d656e7465720000000000000000000000000000602082015250565b7f4552433732313a207472616e736665722066726f6d20696e636f72726563742060008201527f6f776e6572000000000000000000000000000000000000000000000000000000602082015250565b7f4552433732313a20746f6b656e20616c7265616479206d696e74656400000000600082015250565b7f4552433732313a207472616e7366657220746f20746865207a65726f2061646460008201527f7265737300000000000000000000000000000000000000000000000000000000602082015250565b7f4552433732313a20617070726f766520746f2063616c6c657200000000000000600082015250565b7f4552433732313a206f70657261746f7220717565727920666f72206e6f6e657860008201527f697374656e7420746f6b656e0000000000000000000000000000000000000000602082015250565b7f4552433732313a20617070726f76652063616c6c6572206973206e6f74206f7760008201527f6e6572206e6f7220617070726f76656420666f7220616c6c0000000000000000602082015250565b7f4552433732313a2062616c616e636520717565727920666f7220746865207a6560008201527f726f206164647265737300000000000000000000000000000000000000000000602082015250565b7f4552433732313a206f776e657220717565727920666f72206e6f6e657869737460008201527f656e7420746f6b656e0000000000000000000000000000000000000000000000602082015250565b7f45524337323155524953746f726167653a2055524920736574206f66206e6f6e60008201527f6578697374656e7420746f6b656e000000000000000000000000000000000000602082015250565b7f496e76616c696420706f73742069640000000000000000000000000000000000600082015250565b7f4552433732313a206d696e7420746f20746865207a65726f2061646472657373600082015250565b7f45524337323155524953746f726167653a2055524920717565727920666f722060008201527f6e6f6e6578697374656e7420746f6b656e000000000000000000000000000000602082015250565b7f4552433732313a20617070726f76656420717565727920666f72206e6f6e657860008201527f697374656e7420746f6b656e0000000000000000000000000000000000000000602082015250565b7f43616e6e6f74207061737320616e20656d707479206861736800000000000000600082015250565b7f4552433732314d657461646174613a2055524920717565727920666f72206e6f60008201527f6e6578697374656e7420746f6b656e0000000000000000000000000000000000602082015250565b7f4552433732313a20617070726f76616c20746f2063757272656e74206f776e6560008201527f7200000000000000000000000000000000000000000000000000000000000000602082015250565b7f4d757374206f776e20746865206e667420796f752077616e7420746f2073656c60008201527f65637420617320796f75722070726f66696c6500000000000000000000000000602082015250565b7f43616e6e6f742074697020796f7572206f776e20706f73740000000000000000600082015250565b7f4d757374206f776e206120646563656e74726174776974746572206e6674207460008201527f6f20706f73740000000000000000000000000000000000000000000000000000602082015250565b7f4552433732313a207472616e736665722063616c6c6572206973206e6f74206f60008201527f776e6572206e6f7220617070726f766564000000000000000000000000000000602082015250565b613ca681613482565b8114613cb157600080fd5b50565b613cbd816134a6565b8114613cc857600080fd5b50565b613cd4816134b2565b8114613cdf57600080fd5b50565b613ceb816134fe565b8114613cf657600080fd5b5056fea26469706673582212201a702fba472748c8d357fadf40a3b131763b4fad831e2948fa6d9e385edb286b64736f6c63430008040033",
  "linkReferences": {},
  "deployedLinkReferences": {}
}